{
  "contractName": "Medicine",
  "abi": [
    {
      "inputs": [],
      "payable": false,
      "stateMutability": "nonpayable",
      "type": "constructor"
    },
    {
      "constant": true,
      "inputs": [],
      "name": "medicineCount",
      "outputs": [
        {
          "internalType": "uint256",
          "name": "",
          "type": "uint256"
        }
      ],
      "payable": false,
      "stateMutability": "view",
      "type": "function"
    },
    {
      "constant": true,
      "inputs": [
        {
          "internalType": "uint256",
          "name": "",
          "type": "uint256"
        }
      ],
      "name": "medicines",
      "outputs": [
        {
          "internalType": "uint256",
          "name": "id",
          "type": "uint256"
        },
        {
          "internalType": "string",
          "name": "medname",
          "type": "string"
        },
        {
          "internalType": "string",
          "name": "manufaname",
          "type": "string"
        },
        {
          "internalType": "string",
          "name": "batchNo",
          "type": "string"
        },
        {
          "internalType": "string",
          "name": "manufadate",
          "type": "string"
        },
        {
          "internalType": "string",
          "name": "expdate",
          "type": "string"
        },
        {
          "internalType": "string",
          "name": "category",
          "type": "string"
        },
        {
          "internalType": "uint256",
          "name": "price",
          "type": "uint256"
        }
      ],
      "payable": false,
      "stateMutability": "view",
      "type": "function"
    },
    {
      "constant": true,
      "inputs": [
        {
          "internalType": "address",
          "name": "",
          "type": "address"
        }
      ],
      "name": "users",
      "outputs": [
        {
          "internalType": "string",
          "name": "name",
          "type": "string"
        },
        {
          "internalType": "string",
          "name": "addr",
          "type": "string"
        },
        {
          "internalType": "string",
          "name": "role",
          "type": "string"
        }
      ],
      "payable": false,
      "stateMutability": "view",
      "type": "function"
    },
    {
      "constant": false,
      "inputs": [
        {
          "internalType": "string",
          "name": "_medname",
          "type": "string"
        },
        {
          "internalType": "string",
          "name": "_manufaname",
          "type": "string"
        },
        {
          "internalType": "string",
          "name": "_batchNo",
          "type": "string"
        },
        {
          "internalType": "string",
          "name": "_manufadate",
          "type": "string"
        },
        {
          "internalType": "string",
          "name": "_expdate",
          "type": "string"
        },
        {
          "internalType": "string",
          "name": "_category",
          "type": "string"
        },
        {
          "internalType": "uint256",
          "name": "_price",
          "type": "uint256"
        }
      ],
      "name": "addMedicine",
      "outputs": [],
      "payable": false,
      "stateMutability": "nonpayable",
      "type": "function"
    },
    {
      "constant": false,
      "inputs": [
        {
          "internalType": "uint256",
          "name": "_id",
          "type": "uint256"
        },
        {
          "internalType": "string",
          "name": "_medname",
          "type": "string"
        },
        {
          "internalType": "string",
          "name": "_manufaname",
          "type": "string"
        },
        {
          "internalType": "string",
          "name": "_batchNo",
          "type": "string"
        },
        {
          "internalType": "string",
          "name": "_manufadate",
          "type": "string"
        },
        {
          "internalType": "string",
          "name": "_expdate",
          "type": "string"
        },
        {
          "internalType": "string",
          "name": "_category",
          "type": "string"
        },
        {
          "internalType": "uint256",
          "name": "_price",
          "type": "uint256"
        }
      ],
      "name": "updateMedicine",
      "outputs": [],
      "payable": false,
      "stateMutability": "nonpayable",
      "type": "function"
    },
    {
      "constant": false,
      "inputs": [
        {
          "internalType": "uint256",
          "name": "_id",
          "type": "uint256"
        }
      ],
      "name": "deleteMedicine",
      "outputs": [],
      "payable": false,
      "stateMutability": "nonpayable",
      "type": "function"
    },
    {
      "constant": false,
      "inputs": [
        {
          "internalType": "string",
          "name": "_name",
          "type": "string"
        },
        {
          "internalType": "string",
          "name": "_address",
          "type": "string"
        },
        {
          "internalType": "string",
          "name": "_role",
          "type": "string"
        }
      ],
      "name": "registerRoles",
      "outputs": [],
      "payable": false,
      "stateMutability": "nonpayable",
      "type": "function"
    }
  ],
  "bytecode": "0x60806040526103e760005534801561001657600080fd5b5061197b806100266000396000f3fe608060405234801561001057600080fd5b506004361061007d5760003560e01c8063c75db0bc1161005b578063c75db0bc146105f8578063c85e766d146109b0578063d19aa54f14610c81578063fc48e35b14610caf5761007d565b80634dafd4901461008257806385ea7aa1146100a0578063a87430ba14610463575b600080fd5b61008a610e98565b6040518082815260200191505060405180910390f35b61046160048036036101008110156100b757600080fd5b8101908080359060200190929190803590602001906401000000008111156100de57600080fd5b8201836020820111156100f057600080fd5b8035906020019184600183028401116401000000008311171561011257600080fd5b91908080601f016020809104026020016040519081016040528093929190818152602001838380828437600081840152601f19601f8201169050808301925050505050505091929192908035906020019064010000000081111561017557600080fd5b82018360208201111561018757600080fd5b803590602001918460018302840111640100000000831117156101a957600080fd5b91908080601f016020809104026020016040519081016040528093929190818152602001838380828437600081840152601f19601f8201169050808301925050505050505091929192908035906020019064010000000081111561020c57600080fd5b82018360208201111561021e57600080fd5b8035906020019184600183028401116401000000008311171561024057600080fd5b91908080601f016020809104026020016040519081016040528093929190818152602001838380828437600081840152601f19601f820116905080830192505050505050509192919290803590602001906401000000008111156102a357600080fd5b8201836020820111156102b557600080fd5b803590602001918460018302840111640100000000831117156102d757600080fd5b91908080601f016020809104026020016040519081016040528093929190818152602001838380828437600081840152601f19601f8201169050808301925050505050505091929192908035906020019064010000000081111561033a57600080fd5b82018360208201111561034c57600080fd5b8035906020019184600183028401116401000000008311171561036e57600080fd5b91908080601f016020809104026020016040519081016040528093929190818152602001838380828437600081840152601f19601f820116905080830192505050505050509192919290803590602001906401000000008111156103d157600080fd5b8201836020820111156103e357600080fd5b8035906020019184600183028401116401000000008311171561040557600080fd5b91908080601f016020809104026020016040519081016040528093929190818152602001838380828437600081840152601f19601f82011690508083019250505050505050919291929080359060200190929190505050610e9e565b005b6104a56004803603602081101561047957600080fd5b81019080803573ffffffffffffffffffffffffffffffffffffffff169060200190929190505050610fba565b60405180806020018060200180602001848103845287818151815260200191508051906020019080838360005b838110156104ed5780820151818401526020810190506104d2565b50505050905090810190601f16801561051a5780820380516001836020036101000a031916815260200191505b50848103835286818151815260200191508051906020019080838360005b83811015610553578082015181840152602081019050610538565b50505050905090810190601f1680156105805780820380516001836020036101000a031916815260200191505b50848103825285818151815260200191508051906020019080838360005b838110156105b957808201518184015260208101905061059e565b50505050905090810190601f1680156105e65780820380516001836020036101000a031916815260200191505b50965050505050505060405180910390f35b6109ae600480360360e081101561060e57600080fd5b810190808035906020019064010000000081111561062b57600080fd5b82018360208201111561063d57600080fd5b8035906020019184600183028401116401000000008311171561065f57600080fd5b91908080601f016020809104026020016040519081016040528093929190818152602001838380828437600081840152601f19601f820116905080830192505050505050509192919290803590602001906401000000008111156106c257600080fd5b8201836020820111156106d457600080fd5b803590602001918460018302840111640100000000831117156106f657600080fd5b91908080601f016020809104026020016040519081016040528093929190818152602001838380828437600081840152601f19601f8201169050808301925050505050505091929192908035906020019064010000000081111561075957600080fd5b82018360208201111561076b57600080fd5b8035906020019184600183028401116401000000008311171561078d57600080fd5b91908080601f016020809104026020016040519081016040528093929190818152602001838380828437600081840152601f19601f820116905080830192505050505050509192919290803590602001906401000000008111156107f057600080fd5b82018360208201111561080257600080fd5b8035906020019184600183028401116401000000008311171561082457600080fd5b91908080601f016020809104026020016040519081016040528093929190818152602001838380828437600081840152601f19601f8201169050808301925050505050505091929192908035906020019064010000000081111561088757600080fd5b82018360208201111561089957600080fd5b803590602001918460018302840111640100000000831117156108bb57600080fd5b91908080601f016020809104026020016040519081016040528093929190818152602001838380828437600081840152601f19601f8201169050808301925050505050505091929192908035906020019064010000000081111561091e57600080fd5b82018360208201111561093057600080fd5b8035906020019184600183028401116401000000008311171561095257600080fd5b91908080601f016020809104026020016040519081016040528093929190818152602001838380828437600081840152601f19601f820116905080830192505050505050509192919290803590602001909291905050506111ac565b005b6109dc600480360360208110156109c657600080fd5b81019080803590602001909291905050506112db565b6040518089815260200180602001806020018060200180602001806020018060200188815260200187810387528e818151815260200191508051906020019080838360005b83811015610a3c578082015181840152602081019050610a21565b50505050905090810190601f168015610a695780820380516001836020036101000a031916815260200191505b5087810386528d818151815260200191508051906020019080838360005b83811015610aa2578082015181840152602081019050610a87565b50505050905090810190601f168015610acf5780820380516001836020036101000a031916815260200191505b5087810385528c818151815260200191508051906020019080838360005b83811015610b08578082015181840152602081019050610aed565b50505050905090810190601f168015610b355780820380516001836020036101000a031916815260200191505b5087810384528b818151815260200191508051906020019080838360005b83811015610b6e578082015181840152602081019050610b53565b50505050905090810190601f168015610b9b5780820380516001836020036101000a031916815260200191505b5087810383528a818151815260200191508051906020019080838360005b83811015610bd4578082015181840152602081019050610bb9565b50505050905090810190601f168015610c015780820380516001836020036101000a031916815260200191505b50878103825289818151815260200191508051906020019080838360005b83811015610c3a578082015181840152602081019050610c1f565b50505050905090810190601f168015610c675780820380516001836020036101000a031916815260200191505b509e50505050505050505050505050505060405180910390f35b610cad60048036036020811015610c9757600080fd5b81019080803590602001909291905050506116b3565b005b610e9660048036036060811015610cc557600080fd5b8101908080359060200190640100000000811115610ce257600080fd5b820183602082011115610cf457600080fd5b80359060200191846001830284011164010000000083111715610d1657600080fd5b91908080601f016020809104026020016040519081016040528093929190818152602001838380828437600081840152601f19601f82011690508083019250505050505050919291929080359060200190640100000000811115610d7957600080fd5b820183602082011115610d8b57600080fd5b80359060200191846001830284011164010000000083111715610dad57600080fd5b91908080601f016020809104026020016040519081016040528093929190818152602001838380828437600081840152601f19601f82011690508083019250505050505050919291929080359060200190640100000000811115610e1057600080fd5b820183602082011115610e2257600080fd5b80359060200191846001830284011164010000000083111715610e4457600080fd5b91908080601f016020809104026020016040519081016040528093929190818152602001838380828437600081840152601f19601f82011690508083019250505050505050919291929050505061173c565b005b60005481565b60405180610100016040528089815260200188815260200187815260200186815260200185815260200184815260200183815260200182815250600160008a8152602001908152602001600020600082015181600001556020820151816001019080519060200190610f11929190611859565b506040820151816002019080519060200190610f2e929190611859565b506060820151816003019080519060200190610f4b929190611859565b506080820151816004019080519060200190610f68929190611859565b5060a0820151816005019080519060200190610f85929190611859565b5060c0820151816006019080519060200190610fa2929190611859565b5060e082015181600701559050505050505050505050565b6002602052806000526040600020600091509050806000018054600181600116156101000203166002900480601f0160208091040260200160405190810160405280929190818152602001828054600181600116156101000203166002900480156110665780601f1061103b57610100808354040283529160200191611066565b820191906000526020600020905b81548152906001019060200180831161104957829003601f168201915b505050505090806001018054600181600116156101000203166002900480601f0160208091040260200160405190810160405280929190818152602001828054600181600116156101000203166002900480156111045780601f106110d957610100808354040283529160200191611104565b820191906000526020600020905b8154815290600101906020018083116110e757829003601f168201915b505050505090806002018054600181600116156101000203166002900480601f0160208091040260200160405190810160405280929190818152602001828054600181600116156101000203166002900480156111a25780601f10611177576101008083540402835291602001916111a2565b820191906000526020600020905b81548152906001019060200180831161118557829003601f168201915b5050505050905083565b60008081548092919060010191905055506040518061010001604052806000548152602001888152602001878152602001868152602001858152602001848152602001838152602001828152506001600080548152602001908152602001600020600082015181600001556020820151816001019080519060200190611233929190611859565b506040820151816002019080519060200190611250929190611859565b50606082015181600301908051906020019061126d929190611859565b50608082015181600401908051906020019061128a929190611859565b5060a08201518160050190805190602001906112a7929190611859565b5060c08201518160060190805190602001906112c4929190611859565b5060e0820151816007015590505050505050505050565b6001602052806000526040600020600091509050806000015490806001018054600181600116156101000203166002900480601f01602080910402602001604051908101604052809291908181526020018280546001816001161561010002031660029004801561138d5780601f106113625761010080835404028352916020019161138d565b820191906000526020600020905b81548152906001019060200180831161137057829003601f168201915b505050505090806002018054600181600116156101000203166002900480601f01602080910402602001604051908101604052809291908181526020018280546001816001161561010002031660029004801561142b5780601f106114005761010080835404028352916020019161142b565b820191906000526020600020905b81548152906001019060200180831161140e57829003601f168201915b505050505090806003018054600181600116156101000203166002900480601f0160208091040260200160405190810160405280929190818152602001828054600181600116156101000203166002900480156114c95780601f1061149e576101008083540402835291602001916114c9565b820191906000526020600020905b8154815290600101906020018083116114ac57829003601f168201915b505050505090806004018054600181600116156101000203166002900480601f0160208091040260200160405190810160405280929190818152602001828054600181600116156101000203166002900480156115675780601f1061153c57610100808354040283529160200191611567565b820191906000526020600020905b81548152906001019060200180831161154a57829003601f168201915b505050505090806005018054600181600116156101000203166002900480601f0160208091040260200160405190810160405280929190818152602001828054600181600116156101000203166002900480156116055780601f106115da57610100808354040283529160200191611605565b820191906000526020600020905b8154815290600101906020018083116115e857829003601f168201915b505050505090806006018054600181600116156101000203166002900480601f0160208091040260200160405190810160405280929190818152602001828054600181600116156101000203166002900480156116a35780601f10611678576101008083540402835291602001916116a3565b820191906000526020600020905b81548152906001019060200180831161168657829003601f168201915b5050505050908060070154905088565b600160008281526020019081526020016000206000808201600090556001820160006116df91906118d9565b6002820160006116ef91906118d9565b6003820160006116ff91906118d9565b60048201600061170f91906118d9565b60058201600061171f91906118d9565b60068201600061172f91906118d9565b6007820160009055505050565b6000600260003373ffffffffffffffffffffffffffffffffffffffff1673ffffffffffffffffffffffffffffffffffffffff16815260200190815260200160002060020180546001816001161561010002031660029004905011156117a057600080fd5b604051806060016040528084815260200183815260200182815250600260003373ffffffffffffffffffffffffffffffffffffffff1673ffffffffffffffffffffffffffffffffffffffff1681526020019081526020016000206000820151816000019080519060200190611816929190611859565b506020820151816001019080519060200190611833929190611859565b506040820151816002019080519060200190611850929190611859565b50905050505050565b828054600181600116156101000203166002900490600052602060002090601f016020900481019282601f1061189a57805160ff19168380011785556118c8565b828001600101855582156118c8579182015b828111156118c75782518255916020019190600101906118ac565b5b5090506118d59190611921565b5090565b50805460018160011615610100020316600290046000825580601f106118ff575061191e565b601f01602090049060005260206000209081019061191d9190611921565b5b50565b61194391905b8082111561193f576000816000905550600101611927565b5090565b9056fea265627a7a7231582089d89a80e80f3bad4005290c8d5e44100b8866282cc0e34cb1aa85c17dc2603c64736f6c63430005100032",
  "source": "// SPDX-License-Identifier: MIT\npragma solidity >=0.4.22 <0.8.0;\n\ncontract Medicine {\n uint public medicineCount = 999;\n  struct Med {\n    uint id;    \n    string medname;\n    string manufaname;\n    string batchNo;\n    string manufadate;\n    string expdate;\n    string category;\n    uint price;\n  }\n  mapping(uint => Med) public medicines;\n  struct User {       \n    string name;\n    string addr;\n    string role;    \n  }\n  mapping(address => User) public users;\n  constructor() public {      \n  }\n\n function addMedicine (string memory _medname,string memory _manufaname,string memory  _batchNo,string memory _manufadate,string memory _expdate,string memory _category,uint _price) public {\n        medicineCount ++;\n        medicines[medicineCount] = Med(medicineCount, _medname,_manufaname,_batchNo, _manufadate,_expdate,_category,_price);\n        //emit addedProduct(productCount,msg.sender,_name,_date,_time,_productinfo);\n    }\n  function updateMedicine (uint _id,string memory _medname,string memory _manufaname,string memory  _batchNo,string memory _manufadate,string memory _expdate,string memory _category,uint _price) public {\n        medicines[_id] = Med(_id, _medname,_manufaname,_batchNo, _manufadate,_expdate,_category,_price);\n        //emit addedProduct(productCount,msg.sender,_name,_date,_time,_productinfo);\n    } \n  function deleteMedicine (uint _id) public {\n      delete(medicines[_id]);\n      //emit addedProduct(productCount,msg.sender,_name,_date,_time,_productinfo);\n  }  \n  function registerRoles (string memory _name,string memory _address,string memory _role) public {\n        require(bytes(users[msg.sender].role).length<=0);\n        users[msg.sender] = User(_name,_address,_role);\n        //emit registeredEvent(msg.sender);\n    }\n}\n",
  "sourcePath": "D:/MedicalBlockchain-master (1)/MedicalBlockchain-master/contracts/Medicine.sol",
  "compiler": {
    "name": "solc",
    "version": "0.5.16+commit.9c3226ce.Emscripten.clang"
  },
  "schemaVersion": "3.3.3",
  "updatedAt": "2021-01-14T17:17:05.946Z",
  "networkType": "ethereum",
  "devdoc": {
    "methods": {}
  },
  "userdoc": {
    "methods": {}
  }
}